{
	"data": {
		"bytecode": {
			"linkReferences": {},
			"object": "608060405234801561000f575f80fd5b50610a3f8061001d5f395ff3fe608060405234801561000f575f80fd5b506004361061003f575f3560e01c806307de97351461004357806322f5b58d14610074578063552d2d5c14610090575b5f80fd5b61005d600480360381019061005891906104ab565b6100c1565b60405161006b929190610560565b60405180910390f35b61008e600480360381019061008991906106c1565b6101ec565b005b6100aa60048036038101906100a591906104ab565b6102a3565b6040516100b8929190610560565b60405180910390f35b5f602052805f5260405f205f91509050805f0180546100df90610764565b80601f016020809104026020016040519081016040528092919081815260200182805461010b90610764565b80156101565780601f1061012d57610100808354040283529160200191610156565b820191905f5260205f20905b81548152906001019060200180831161013957829003601f168201915b50505050509080600101805461016b90610764565b80601f016020809104026020016040519081016040528092919081815260200182805461019790610764565b80156101e25780601f106101b9576101008083540402835291602001916101e2565b820191905f5260205f20905b8154815290600101906020018083116101c557829003601f168201915b5050505050905082565b5f805f3373ffffffffffffffffffffffffffffffffffffffff1673ffffffffffffffffffffffffffffffffffffffff1681526020019081526020015f20905082815f01908161023b919061093a565b508181600101908161024d919061093a565b503373ffffffffffffffffffffffffffffffffffffffff167f1f061cf8aaf27cf3f03ba7208eb599f45f22f0eb06bbc7d86f7e42f009d911e28484604051610296929190610560565b60405180910390a2505050565b6060805f808473ffffffffffffffffffffffffffffffffffffffff1673ffffffffffffffffffffffffffffffffffffffff1681526020019081526020015f205f015f808573ffffffffffffffffffffffffffffffffffffffff1673ffffffffffffffffffffffffffffffffffffffff1681526020019081526020015f2060010181805461032f90610764565b80601f016020809104026020016040519081016040528092919081815260200182805461035b90610764565b80156103a65780601f1061037d576101008083540402835291602001916103a6565b820191905f5260205f20905b81548152906001019060200180831161038957829003601f168201915b505050505091508080546103b990610764565b80601f01602080910402602001604051908101604052809291908181526020018280546103e590610764565b80156104305780601f1061040757610100808354040283529160200191610430565b820191905f5260205f20905b81548152906001019060200180831161041357829003601f168201915b5050505050905091509150915091565b5f604051905090565b5f80fd5b5f80fd5b5f73ffffffffffffffffffffffffffffffffffffffff82169050919050565b5f61047a82610451565b9050919050565b61048a81610470565b8114610494575f80fd5b50565b5f813590506104a581610481565b92915050565b5f602082840312156104c0576104bf610449565b5b5f6104cd84828501610497565b91505092915050565b5f81519050919050565b5f82825260208201905092915050565b5f5b8381101561050d5780820151818401526020810190506104f2565b5f8484015250505050565b5f601f19601f8301169050919050565b5f610532826104d6565b61053c81856104e0565b935061054c8185602086016104f0565b61055581610518565b840191505092915050565b5f6040820190508181035f8301526105788185610528565b9050818103602083015261058c8184610528565b90509392505050565b5f80fd5b5f80fd5b7f4e487b71000000000000000000000000000000000000000000000000000000005f52604160045260245ffd5b6105d382610518565b810181811067ffffffffffffffff821117156105f2576105f161059d565b5b80604052505050565b5f610604610440565b905061061082826105ca565b919050565b5f67ffffffffffffffff82111561062f5761062e61059d565b5b61063882610518565b9050602081019050919050565b828183375f83830152505050565b5f61066561066084610615565b6105fb565b90508281526020810184848401111561068157610680610599565b5b61068c848285610645565b509392505050565b5f82601f8301126106a8576106a7610595565b5b81356106b8848260208601610653565b91505092915050565b5f80604083850312156106d7576106d6610449565b5b5f83013567ffffffffffffffff8111156106f4576106f361044d565b5b61070085828601610694565b925050602083013567ffffffffffffffff8111156107215761072061044d565b5b61072d85828601610694565b9150509250929050565b7f4e487b71000000000000000000000000000000000000000000000000000000005f52602260045260245ffd5b5f600282049050600182168061077b57607f821691505b60208210810361078e5761078d610737565b5b50919050565b5f819050815f5260205f209050919050565b5f6020601f8301049050919050565b5f82821b905092915050565b5f600883026107f07fffffffffffffffffffffffffffffffffffffffffffffffffffffffffffffffff826107b5565b6107fa86836107b5565b95508019841693508086168417925050509392505050565b5f819050919050565b5f819050919050565b5f61083e61083961083484610812565b61081b565b610812565b9050919050565b5f819050919050565b61085783610824565b61086b61086382610845565b8484546107c1565b825550505050565b5f90565b61087f610873565b61088a81848461084e565b505050565b5b818110156108ad576108a25f82610877565b600181019050610890565b5050565b601f8211156108f2576108c381610794565b6108cc846107a6565b810160208510156108db578190505b6108ef6108e7856107a6565b83018261088f565b50505b505050565b5f82821c905092915050565b5f6109125f19846008026108f7565b1980831691505092915050565b5f61092a8383610903565b9150826002028217905092915050565b610943826104d6565b67ffffffffffffffff81111561095c5761095b61059d565b5b6109668254610764565b6109718282856108b1565b5f60209050601f8311600181146109a2575f8415610990578287015190505b61099a858261091f565b865550610a01565b601f1984166109b086610794565b5f5b828110156109d7578489015182556001820191506020850194506020810190506109b2565b868310156109f457848901516109f0601f891682610903565b8355505b6001600288020188555050505b50505050505056fea2646970667358221220ce71750f6804b6269a77b0e9b0a1845aa0e75bbd8e99ff144a7aaa2a2e92fabd64736f6c63430008150033",
			"opcodes": "PUSH1 0x80 PUSH1 0x40 MSTORE CALLVALUE DUP1 ISZERO PUSH2 0xF JUMPI PUSH0 DUP1 REVERT JUMPDEST POP PUSH2 0xA3F DUP1 PUSH2 0x1D PUSH0 CODECOPY PUSH0 RETURN INVALID PUSH1 0x80 PUSH1 0x40 MSTORE CALLVALUE DUP1 ISZERO PUSH2 0xF JUMPI PUSH0 DUP1 REVERT JUMPDEST POP PUSH1 0x4 CALLDATASIZE LT PUSH2 0x3F JUMPI PUSH0 CALLDATALOAD PUSH1 0xE0 SHR DUP1 PUSH4 0x7DE9735 EQ PUSH2 0x43 JUMPI DUP1 PUSH4 0x22F5B58D EQ PUSH2 0x74 JUMPI DUP1 PUSH4 0x552D2D5C EQ PUSH2 0x90 JUMPI JUMPDEST PUSH0 DUP1 REVERT JUMPDEST PUSH2 0x5D PUSH1 0x4 DUP1 CALLDATASIZE SUB DUP2 ADD SWAP1 PUSH2 0x58 SWAP2 SWAP1 PUSH2 0x4AB JUMP JUMPDEST PUSH2 0xC1 JUMP JUMPDEST PUSH1 0x40 MLOAD PUSH2 0x6B SWAP3 SWAP2 SWAP1 PUSH2 0x560 JUMP JUMPDEST PUSH1 0x40 MLOAD DUP1 SWAP2 SUB SWAP1 RETURN JUMPDEST PUSH2 0x8E PUSH1 0x4 DUP1 CALLDATASIZE SUB DUP2 ADD SWAP1 PUSH2 0x89 SWAP2 SWAP1 PUSH2 0x6C1 JUMP JUMPDEST PUSH2 0x1EC JUMP JUMPDEST STOP JUMPDEST PUSH2 0xAA PUSH1 0x4 DUP1 CALLDATASIZE SUB DUP2 ADD SWAP1 PUSH2 0xA5 SWAP2 SWAP1 PUSH2 0x4AB JUMP JUMPDEST PUSH2 0x2A3 JUMP JUMPDEST PUSH1 0x40 MLOAD PUSH2 0xB8 SWAP3 SWAP2 SWAP1 PUSH2 0x560 JUMP JUMPDEST PUSH1 0x40 MLOAD DUP1 SWAP2 SUB SWAP1 RETURN JUMPDEST PUSH0 PUSH1 0x20 MSTORE DUP1 PUSH0 MSTORE PUSH1 0x40 PUSH0 KECCAK256 PUSH0 SWAP2 POP SWAP1 POP DUP1 PUSH0 ADD DUP1 SLOAD PUSH2 0xDF SWAP1 PUSH2 0x764 JUMP JUMPDEST DUP1 PUSH1 0x1F ADD PUSH1 0x20 DUP1 SWAP2 DIV MUL PUSH1 0x20 ADD PUSH1 0x40 MLOAD SWAP1 DUP2 ADD PUSH1 0x40 MSTORE DUP1 SWAP3 SWAP2 SWAP1 DUP2 DUP2 MSTORE PUSH1 0x20 ADD DUP3 DUP1 SLOAD PUSH2 0x10B SWAP1 PUSH2 0x764 JUMP JUMPDEST DUP1 ISZERO PUSH2 0x156 JUMPI DUP1 PUSH1 0x1F LT PUSH2 0x12D JUMPI PUSH2 0x100 DUP1 DUP4 SLOAD DIV MUL DUP4 MSTORE SWAP2 PUSH1 0x20 ADD SWAP2 PUSH2 0x156 JUMP JUMPDEST DUP3 ADD SWAP2 SWAP1 PUSH0 MSTORE PUSH1 0x20 PUSH0 KECCAK256 SWAP1 JUMPDEST DUP2 SLOAD DUP2 MSTORE SWAP1 PUSH1 0x1 ADD SWAP1 PUSH1 0x20 ADD DUP1 DUP4 GT PUSH2 0x139 JUMPI DUP3 SWAP1 SUB PUSH1 0x1F AND DUP3 ADD SWAP2 JUMPDEST POP POP POP POP POP SWAP1 DUP1 PUSH1 0x1 ADD DUP1 SLOAD PUSH2 0x16B SWAP1 PUSH2 0x764 JUMP JUMPDEST DUP1 PUSH1 0x1F ADD PUSH1 0x20 DUP1 SWAP2 DIV MUL PUSH1 0x20 ADD PUSH1 0x40 MLOAD SWAP1 DUP2 ADD PUSH1 0x40 MSTORE DUP1 SWAP3 SWAP2 SWAP1 DUP2 DUP2 MSTORE PUSH1 0x20 ADD DUP3 DUP1 SLOAD PUSH2 0x197 SWAP1 PUSH2 0x764 JUMP JUMPDEST DUP1 ISZERO PUSH2 0x1E2 JUMPI DUP1 PUSH1 0x1F LT PUSH2 0x1B9 JUMPI PUSH2 0x100 DUP1 DUP4 SLOAD DIV MUL DUP4 MSTORE SWAP2 PUSH1 0x20 ADD SWAP2 PUSH2 0x1E2 JUMP JUMPDEST DUP3 ADD SWAP2 SWAP1 PUSH0 MSTORE PUSH1 0x20 PUSH0 KECCAK256 SWAP1 JUMPDEST DUP2 SLOAD DUP2 MSTORE SWAP1 PUSH1 0x1 ADD SWAP1 PUSH1 0x20 ADD DUP1 DUP4 GT PUSH2 0x1C5 JUMPI DUP3 SWAP1 SUB PUSH1 0x1F AND DUP3 ADD SWAP2 JUMPDEST POP POP POP POP POP SWAP1 POP DUP3 JUMP JUMPDEST PUSH0 DUP1 PUSH0 CALLER PUSH20 0xFFFFFFFFFFFFFFFFFFFFFFFFFFFFFFFFFFFFFFFF AND PUSH20 0xFFFFFFFFFFFFFFFFFFFFFFFFFFFFFFFFFFFFFFFF AND DUP2 MSTORE PUSH1 0x20 ADD SWAP1 DUP2 MSTORE PUSH1 0x20 ADD PUSH0 KECCAK256 SWAP1 POP DUP3 DUP2 PUSH0 ADD SWAP1 DUP2 PUSH2 0x23B SWAP2 SWAP1 PUSH2 0x93A JUMP JUMPDEST POP DUP2 DUP2 PUSH1 0x1 ADD SWAP1 DUP2 PUSH2 0x24D SWAP2 SWAP1 PUSH2 0x93A JUMP JUMPDEST POP CALLER PUSH20 0xFFFFFFFFFFFFFFFFFFFFFFFFFFFFFFFFFFFFFFFF AND PUSH32 0x1F061CF8AAF27CF3F03BA7208EB599F45F22F0EB06BBC7D86F7E42F009D911E2 DUP5 DUP5 PUSH1 0x40 MLOAD PUSH2 0x296 SWAP3 SWAP2 SWAP1 PUSH2 0x560 JUMP JUMPDEST PUSH1 0x40 MLOAD DUP1 SWAP2 SUB SWAP1 LOG2 POP POP POP JUMP JUMPDEST PUSH1 0x60 DUP1 PUSH0 DUP1 DUP5 PUSH20 0xFFFFFFFFFFFFFFFFFFFFFFFFFFFFFFFFFFFFFFFF AND PUSH20 0xFFFFFFFFFFFFFFFFFFFFFFFFFFFFFFFFFFFFFFFF AND DUP2 MSTORE PUSH1 0x20 ADD SWAP1 DUP2 MSTORE PUSH1 0x20 ADD PUSH0 KECCAK256 PUSH0 ADD PUSH0 DUP1 DUP6 PUSH20 0xFFFFFFFFFFFFFFFFFFFFFFFFFFFFFFFFFFFFFFFF AND PUSH20 0xFFFFFFFFFFFFFFFFFFFFFFFFFFFFFFFFFFFFFFFF AND DUP2 MSTORE PUSH1 0x20 ADD SWAP1 DUP2 MSTORE PUSH1 0x20 ADD PUSH0 KECCAK256 PUSH1 0x1 ADD DUP2 DUP1 SLOAD PUSH2 0x32F SWAP1 PUSH2 0x764 JUMP JUMPDEST DUP1 PUSH1 0x1F ADD PUSH1 0x20 DUP1 SWAP2 DIV MUL PUSH1 0x20 ADD PUSH1 0x40 MLOAD SWAP1 DUP2 ADD PUSH1 0x40 MSTORE DUP1 SWAP3 SWAP2 SWAP1 DUP2 DUP2 MSTORE PUSH1 0x20 ADD DUP3 DUP1 SLOAD PUSH2 0x35B SWAP1 PUSH2 0x764 JUMP JUMPDEST DUP1 ISZERO PUSH2 0x3A6 JUMPI DUP1 PUSH1 0x1F LT PUSH2 0x37D JUMPI PUSH2 0x100 DUP1 DUP4 SLOAD DIV MUL DUP4 MSTORE SWAP2 PUSH1 0x20 ADD SWAP2 PUSH2 0x3A6 JUMP JUMPDEST DUP3 ADD SWAP2 SWAP1 PUSH0 MSTORE PUSH1 0x20 PUSH0 KECCAK256 SWAP1 JUMPDEST DUP2 SLOAD DUP2 MSTORE SWAP1 PUSH1 0x1 ADD SWAP1 PUSH1 0x20 ADD DUP1 DUP4 GT PUSH2 0x389 JUMPI DUP3 SWAP1 SUB PUSH1 0x1F AND DUP3 ADD SWAP2 JUMPDEST POP POP POP POP POP SWAP2 POP DUP1 DUP1 SLOAD PUSH2 0x3B9 SWAP1 PUSH2 0x764 JUMP JUMPDEST DUP1 PUSH1 0x1F ADD PUSH1 0x20 DUP1 SWAP2 DIV MUL PUSH1 0x20 ADD PUSH1 0x40 MLOAD SWAP1 DUP2 ADD PUSH1 0x40 MSTORE DUP1 SWAP3 SWAP2 SWAP1 DUP2 DUP2 MSTORE PUSH1 0x20 ADD DUP3 DUP1 SLOAD PUSH2 0x3E5 SWAP1 PUSH2 0x764 JUMP JUMPDEST DUP1 ISZERO PUSH2 0x430 JUMPI DUP1 PUSH1 0x1F LT PUSH2 0x407 JUMPI PUSH2 0x100 DUP1 DUP4 SLOAD DIV MUL DUP4 MSTORE SWAP2 PUSH1 0x20 ADD SWAP2 PUSH2 0x430 JUMP JUMPDEST DUP3 ADD SWAP2 SWAP1 PUSH0 MSTORE PUSH1 0x20 PUSH0 KECCAK256 SWAP1 JUMPDEST DUP2 SLOAD DUP2 MSTORE SWAP1 PUSH1 0x1 ADD SWAP1 PUSH1 0x20 ADD DUP1 DUP4 GT PUSH2 0x413 JUMPI DUP3 SWAP1 SUB PUSH1 0x1F AND DUP3 ADD SWAP2 JUMPDEST POP POP POP POP POP SWAP1 POP SWAP2 POP SWAP2 POP SWAP2 POP SWAP2 JUMP JUMPDEST PUSH0 PUSH1 0x40 MLOAD SWAP1 POP SWAP1 JUMP JUMPDEST PUSH0 DUP1 REVERT JUMPDEST PUSH0 DUP1 REVERT JUMPDEST PUSH0 PUSH20 0xFFFFFFFFFFFFFFFFFFFFFFFFFFFFFFFFFFFFFFFF DUP3 AND SWAP1 POP SWAP2 SWAP1 POP JUMP JUMPDEST PUSH0 PUSH2 0x47A DUP3 PUSH2 0x451 JUMP JUMPDEST SWAP1 POP SWAP2 SWAP1 POP JUMP JUMPDEST PUSH2 0x48A DUP2 PUSH2 0x470 JUMP JUMPDEST DUP2 EQ PUSH2 0x494 JUMPI PUSH0 DUP1 REVERT JUMPDEST POP JUMP JUMPDEST PUSH0 DUP2 CALLDATALOAD SWAP1 POP PUSH2 0x4A5 DUP2 PUSH2 0x481 JUMP JUMPDEST SWAP3 SWAP2 POP POP JUMP JUMPDEST PUSH0 PUSH1 0x20 DUP3 DUP5 SUB SLT ISZERO PUSH2 0x4C0 JUMPI PUSH2 0x4BF PUSH2 0x449 JUMP JUMPDEST JUMPDEST PUSH0 PUSH2 0x4CD DUP5 DUP3 DUP6 ADD PUSH2 0x497 JUMP JUMPDEST SWAP2 POP POP SWAP3 SWAP2 POP POP JUMP JUMPDEST PUSH0 DUP2 MLOAD SWAP1 POP SWAP2 SWAP1 POP JUMP JUMPDEST PUSH0 DUP3 DUP3 MSTORE PUSH1 0x20 DUP3 ADD SWAP1 POP SWAP3 SWAP2 POP POP JUMP JUMPDEST PUSH0 JUMPDEST DUP4 DUP2 LT ISZERO PUSH2 0x50D JUMPI DUP1 DUP3 ADD MLOAD DUP2 DUP5 ADD MSTORE PUSH1 0x20 DUP2 ADD SWAP1 POP PUSH2 0x4F2 JUMP JUMPDEST PUSH0 DUP5 DUP5 ADD MSTORE POP POP POP POP JUMP JUMPDEST PUSH0 PUSH1 0x1F NOT PUSH1 0x1F DUP4 ADD AND SWAP1 POP SWAP2 SWAP1 POP JUMP JUMPDEST PUSH0 PUSH2 0x532 DUP3 PUSH2 0x4D6 JUMP JUMPDEST PUSH2 0x53C DUP2 DUP6 PUSH2 0x4E0 JUMP JUMPDEST SWAP4 POP PUSH2 0x54C DUP2 DUP6 PUSH1 0x20 DUP7 ADD PUSH2 0x4F0 JUMP JUMPDEST PUSH2 0x555 DUP2 PUSH2 0x518 JUMP JUMPDEST DUP5 ADD SWAP2 POP POP SWAP3 SWAP2 POP POP JUMP JUMPDEST PUSH0 PUSH1 0x40 DUP3 ADD SWAP1 POP DUP2 DUP2 SUB PUSH0 DUP4 ADD MSTORE PUSH2 0x578 DUP2 DUP6 PUSH2 0x528 JUMP JUMPDEST SWAP1 POP DUP2 DUP2 SUB PUSH1 0x20 DUP4 ADD MSTORE PUSH2 0x58C DUP2 DUP5 PUSH2 0x528 JUMP JUMPDEST SWAP1 POP SWAP4 SWAP3 POP POP POP JUMP JUMPDEST PUSH0 DUP1 REVERT JUMPDEST PUSH0 DUP1 REVERT JUMPDEST PUSH32 0x4E487B7100000000000000000000000000000000000000000000000000000000 PUSH0 MSTORE PUSH1 0x41 PUSH1 0x4 MSTORE PUSH1 0x24 PUSH0 REVERT JUMPDEST PUSH2 0x5D3 DUP3 PUSH2 0x518 JUMP JUMPDEST DUP2 ADD DUP2 DUP2 LT PUSH8 0xFFFFFFFFFFFFFFFF DUP3 GT OR ISZERO PUSH2 0x5F2 JUMPI PUSH2 0x5F1 PUSH2 0x59D JUMP JUMPDEST JUMPDEST DUP1 PUSH1 0x40 MSTORE POP POP POP JUMP JUMPDEST PUSH0 PUSH2 0x604 PUSH2 0x440 JUMP JUMPDEST SWAP1 POP PUSH2 0x610 DUP3 DUP3 PUSH2 0x5CA JUMP JUMPDEST SWAP2 SWAP1 POP JUMP JUMPDEST PUSH0 PUSH8 0xFFFFFFFFFFFFFFFF DUP3 GT ISZERO PUSH2 0x62F JUMPI PUSH2 0x62E PUSH2 0x59D JUMP JUMPDEST JUMPDEST PUSH2 0x638 DUP3 PUSH2 0x518 JUMP JUMPDEST SWAP1 POP PUSH1 0x20 DUP2 ADD SWAP1 POP SWAP2 SWAP1 POP JUMP JUMPDEST DUP3 DUP2 DUP4 CALLDATACOPY PUSH0 DUP4 DUP4 ADD MSTORE POP POP POP JUMP JUMPDEST PUSH0 PUSH2 0x665 PUSH2 0x660 DUP5 PUSH2 0x615 JUMP JUMPDEST PUSH2 0x5FB JUMP JUMPDEST SWAP1 POP DUP3 DUP2 MSTORE PUSH1 0x20 DUP2 ADD DUP5 DUP5 DUP5 ADD GT ISZERO PUSH2 0x681 JUMPI PUSH2 0x680 PUSH2 0x599 JUMP JUMPDEST JUMPDEST PUSH2 0x68C DUP5 DUP3 DUP6 PUSH2 0x645 JUMP JUMPDEST POP SWAP4 SWAP3 POP POP POP JUMP JUMPDEST PUSH0 DUP3 PUSH1 0x1F DUP4 ADD SLT PUSH2 0x6A8 JUMPI PUSH2 0x6A7 PUSH2 0x595 JUMP JUMPDEST JUMPDEST DUP2 CALLDATALOAD PUSH2 0x6B8 DUP5 DUP3 PUSH1 0x20 DUP7 ADD PUSH2 0x653 JUMP JUMPDEST SWAP2 POP POP SWAP3 SWAP2 POP POP JUMP JUMPDEST PUSH0 DUP1 PUSH1 0x40 DUP4 DUP6 SUB SLT ISZERO PUSH2 0x6D7 JUMPI PUSH2 0x6D6 PUSH2 0x449 JUMP JUMPDEST JUMPDEST PUSH0 DUP4 ADD CALLDATALOAD PUSH8 0xFFFFFFFFFFFFFFFF DUP2 GT ISZERO PUSH2 0x6F4 JUMPI PUSH2 0x6F3 PUSH2 0x44D JUMP JUMPDEST JUMPDEST PUSH2 0x700 DUP6 DUP3 DUP7 ADD PUSH2 0x694 JUMP JUMPDEST SWAP3 POP POP PUSH1 0x20 DUP4 ADD CALLDATALOAD PUSH8 0xFFFFFFFFFFFFFFFF DUP2 GT ISZERO PUSH2 0x721 JUMPI PUSH2 0x720 PUSH2 0x44D JUMP JUMPDEST JUMPDEST PUSH2 0x72D DUP6 DUP3 DUP7 ADD PUSH2 0x694 JUMP JUMPDEST SWAP2 POP POP SWAP3 POP SWAP3 SWAP1 POP JUMP JUMPDEST PUSH32 0x4E487B7100000000000000000000000000000000000000000000000000000000 PUSH0 MSTORE PUSH1 0x22 PUSH1 0x4 MSTORE PUSH1 0x24 PUSH0 REVERT JUMPDEST PUSH0 PUSH1 0x2 DUP3 DIV SWAP1 POP PUSH1 0x1 DUP3 AND DUP1 PUSH2 0x77B JUMPI PUSH1 0x7F DUP3 AND SWAP2 POP JUMPDEST PUSH1 0x20 DUP3 LT DUP2 SUB PUSH2 0x78E JUMPI PUSH2 0x78D PUSH2 0x737 JUMP JUMPDEST JUMPDEST POP SWAP2 SWAP1 POP JUMP JUMPDEST PUSH0 DUP2 SWAP1 POP DUP2 PUSH0 MSTORE PUSH1 0x20 PUSH0 KECCAK256 SWAP1 POP SWAP2 SWAP1 POP JUMP JUMPDEST PUSH0 PUSH1 0x20 PUSH1 0x1F DUP4 ADD DIV SWAP1 POP SWAP2 SWAP1 POP JUMP JUMPDEST PUSH0 DUP3 DUP3 SHL SWAP1 POP SWAP3 SWAP2 POP POP JUMP JUMPDEST PUSH0 PUSH1 0x8 DUP4 MUL PUSH2 0x7F0 PUSH32 0xFFFFFFFFFFFFFFFFFFFFFFFFFFFFFFFFFFFFFFFFFFFFFFFFFFFFFFFFFFFFFFFF DUP3 PUSH2 0x7B5 JUMP JUMPDEST PUSH2 0x7FA DUP7 DUP4 PUSH2 0x7B5 JUMP JUMPDEST SWAP6 POP DUP1 NOT DUP5 AND SWAP4 POP DUP1 DUP7 AND DUP5 OR SWAP3 POP POP POP SWAP4 SWAP3 POP POP POP JUMP JUMPDEST PUSH0 DUP2 SWAP1 POP SWAP2 SWAP1 POP JUMP JUMPDEST PUSH0 DUP2 SWAP1 POP SWAP2 SWAP1 POP JUMP JUMPDEST PUSH0 PUSH2 0x83E PUSH2 0x839 PUSH2 0x834 DUP5 PUSH2 0x812 JUMP JUMPDEST PUSH2 0x81B JUMP JUMPDEST PUSH2 0x812 JUMP JUMPDEST SWAP1 POP SWAP2 SWAP1 POP JUMP JUMPDEST PUSH0 DUP2 SWAP1 POP SWAP2 SWAP1 POP JUMP JUMPDEST PUSH2 0x857 DUP4 PUSH2 0x824 JUMP JUMPDEST PUSH2 0x86B PUSH2 0x863 DUP3 PUSH2 0x845 JUMP JUMPDEST DUP5 DUP5 SLOAD PUSH2 0x7C1 JUMP JUMPDEST DUP3 SSTORE POP POP POP POP JUMP JUMPDEST PUSH0 SWAP1 JUMP JUMPDEST PUSH2 0x87F PUSH2 0x873 JUMP JUMPDEST PUSH2 0x88A DUP2 DUP5 DUP5 PUSH2 0x84E JUMP JUMPDEST POP POP POP JUMP JUMPDEST JUMPDEST DUP2 DUP2 LT ISZERO PUSH2 0x8AD JUMPI PUSH2 0x8A2 PUSH0 DUP3 PUSH2 0x877 JUMP JUMPDEST PUSH1 0x1 DUP2 ADD SWAP1 POP PUSH2 0x890 JUMP JUMPDEST POP POP JUMP JUMPDEST PUSH1 0x1F DUP3 GT ISZERO PUSH2 0x8F2 JUMPI PUSH2 0x8C3 DUP2 PUSH2 0x794 JUMP JUMPDEST PUSH2 0x8CC DUP5 PUSH2 0x7A6 JUMP JUMPDEST DUP2 ADD PUSH1 0x20 DUP6 LT ISZERO PUSH2 0x8DB JUMPI DUP2 SWAP1 POP JUMPDEST PUSH2 0x8EF PUSH2 0x8E7 DUP6 PUSH2 0x7A6 JUMP JUMPDEST DUP4 ADD DUP3 PUSH2 0x88F JUMP JUMPDEST POP POP JUMPDEST POP POP POP JUMP JUMPDEST PUSH0 DUP3 DUP3 SHR SWAP1 POP SWAP3 SWAP2 POP POP JUMP JUMPDEST PUSH0 PUSH2 0x912 PUSH0 NOT DUP5 PUSH1 0x8 MUL PUSH2 0x8F7 JUMP JUMPDEST NOT DUP1 DUP4 AND SWAP2 POP POP SWAP3 SWAP2 POP POP JUMP JUMPDEST PUSH0 PUSH2 0x92A DUP4 DUP4 PUSH2 0x903 JUMP JUMPDEST SWAP2 POP DUP3 PUSH1 0x2 MUL DUP3 OR SWAP1 POP SWAP3 SWAP2 POP POP JUMP JUMPDEST PUSH2 0x943 DUP3 PUSH2 0x4D6 JUMP JUMPDEST PUSH8 0xFFFFFFFFFFFFFFFF DUP2 GT ISZERO PUSH2 0x95C JUMPI PUSH2 0x95B PUSH2 0x59D JUMP JUMPDEST JUMPDEST PUSH2 0x966 DUP3 SLOAD PUSH2 0x764 JUMP JUMPDEST PUSH2 0x971 DUP3 DUP3 DUP6 PUSH2 0x8B1 JUMP JUMPDEST PUSH0 PUSH1 0x20 SWAP1 POP PUSH1 0x1F DUP4 GT PUSH1 0x1 DUP2 EQ PUSH2 0x9A2 JUMPI PUSH0 DUP5 ISZERO PUSH2 0x990 JUMPI DUP3 DUP8 ADD MLOAD SWAP1 POP JUMPDEST PUSH2 0x99A DUP6 DUP3 PUSH2 0x91F JUMP JUMPDEST DUP7 SSTORE POP PUSH2 0xA01 JUMP JUMPDEST PUSH1 0x1F NOT DUP5 AND PUSH2 0x9B0 DUP7 PUSH2 0x794 JUMP JUMPDEST PUSH0 JUMPDEST DUP3 DUP2 LT ISZERO PUSH2 0x9D7 JUMPI DUP5 DUP10 ADD MLOAD DUP3 SSTORE PUSH1 0x1 DUP3 ADD SWAP2 POP PUSH1 0x20 DUP6 ADD SWAP5 POP PUSH1 0x20 DUP2 ADD SWAP1 POP PUSH2 0x9B2 JUMP JUMPDEST DUP7 DUP4 LT ISZERO PUSH2 0x9F4 JUMPI DUP5 DUP10 ADD MLOAD PUSH2 0x9F0 PUSH1 0x1F DUP10 AND DUP3 PUSH2 0x903 JUMP JUMPDEST DUP4 SSTORE POP JUMPDEST PUSH1 0x1 PUSH1 0x2 DUP9 MUL ADD DUP9 SSTORE POP POP POP JUMPDEST POP POP POP POP POP POP JUMP INVALID LOG2 PUSH5 0x6970667358 0x22 SLT KECCAK256 0xCE PUSH18 0x750F6804B6269A77B0E9B0A1845AA0E75BBD DUP15 SWAP10 SELFDESTRUCT EQ 0x4A PUSH27 0xAA2A2E92FABD64736F6C6343000815003300000000000000000000 "
		},
		"gasEstimates": {
			"creation": {
				"codeDepositCost": "524600",
				"executionCost": "554",
				"totalCost": "525154"
			},
			"external": {
				"addPerson(string,string)": "infinite",
				"getPerson(address)": "infinite",
				"people(address)": "infinite"
			}
		},
		"methodIdentifiers": {
			"addPerson(string,string)": "22f5b58d",
			"getPerson(address)": "552d2d5c",
			"people(address)": "07de9735"
		}
	},
	"abi": [
		{
			"anonymous": false,
			"inputs": [
				{
					"indexed": true,
					"internalType": "address",
					"name": "personAddress",
					"type": "address"
				},
				{
					"indexed": false,
					"internalType": "string",
					"name": "firstName",
					"type": "string"
				},
				{
					"indexed": false,
					"internalType": "string",
					"name": "lastName",
					"type": "string"
				}
			],
			"name": "PersonAdded",
			"type": "event"
		},
		{
			"inputs": [
				{
					"internalType": "string",
					"name": "firstName",
					"type": "string"
				},
				{
					"internalType": "string",
					"name": "lastName",
					"type": "string"
				}
			],
			"name": "addPerson",
			"outputs": [],
			"stateMutability": "nonpayable",
			"type": "function"
		},
		{
			"inputs": [
				{
					"internalType": "address",
					"name": "personAddress",
					"type": "address"
				}
			],
			"name": "getPerson",
			"outputs": [
				{
					"internalType": "string",
					"name": "",
					"type": "string"
				},
				{
					"internalType": "string",
					"name": "",
					"type": "string"
				}
			],
			"stateMutability": "view",
			"type": "function"
		},
		{
			"inputs": [
				{
					"internalType": "address",
					"name": "",
					"type": "address"
				}
			],
			"name": "people",
			"outputs": [
				{
					"internalType": "string",
					"name": "firstName",
					"type": "string"
				},
				{
					"internalType": "string",
					"name": "lastName",
					"type": "string"
				}
			],
			"stateMutability": "view",
			"type": "function"
		}
	]
}